:02000002B0004C
:1040000000400B002A530B00000006000C000502C4
:084010000401B41400000000DB
:0440180028500B0021
:10401C00034613F8012B002AFBD1181A01387047FC
:10402C0009480A49884208B505D0094A824202D09B
:10403C00121A00F049FF0748074A0021121A00F033
:10404C0051FF014808BD00BF34E603208C520B0021
:10405C00A4E60320A4E60320F0E7032070B5074E86
:10406C00074C00F067FBA41BA4080025AC4200D150
:10407C0070BD56F8043B98470135F7E744520B00E6
:10408C0068520B0000F013B808B500F01BF8BDE83F
:10409C00084000F007BB00F0F3B900F0F9B9007864
:1040AC00B0FA80F04009704701230370704708B5DF
:1040BC0000210E2000F032FEBDE808400121052051
:1040CC0000F02CBE13B50E2000F039FE0D4B18601D
:1040DC000D4B19688142A8BF014619600B4B1C6837
:1040EC00A0420246B8BF22461A60FF230093002369
:1040FC0000F0A4FA0146052002B0BDE8104000F023
:10410C0035BE00BFB4E6032034E60320B0E603203E
:10411C0010B5074B074A9A600024C3E900440320FA
:10412C0000F022F921460120BDE8104000F024B92E
:10413C00A4E603200000FFFF08B5024B1B689B6838
:10414C00019308BD6802030008B5024B1B68DB68CD
:10415C00019308BD6802030008B5024B1B685B683D
:10416C00019308BD2C02030008B5024B1B689B6829
:10417C00019308BD2C02030008B5024B1B68DB68D9
:10418C00019308BD2C02030008B5024B1B689B6A07
:10419C00019308BD2C02030008B5024B1B681B6B76
:1041AC00019308BD2C02030008B5024B1B689B6FE2
:1041BC00019308BD2C02030008B5024B1B685B6819
:1041CC00019308BD1802030008B5024B1B685B691C
:1041DC00019308BD1802030008B5024B1B685B6C09
:1041EC00019308BD4802030008B5024B1B685B69CC
:1041FC00019308BD6402030008B5024B1B68DB6821
:10420C00019308BD3C02030008B5024B1B681B69F7
:10421C00019308BD3C02030008B5024B1B685B69A7
:10422C00019308BD3C02030008B5024B1B689B6957
:10423C00019308BD3C02030008B5024B1B68DB6907
:10424C00019308BD3C02030008B5024B1B681B6AB6
:10425C00019308BD3C02030008B5024B1B689B6A26
:10426C00019308BD3C02030008B5024B1B681B6C94
:10427C00019308BD3C02030008B5024B1B681B6A86
:10428C00019308BD2802030008B5024B1B685B6A4A
:10429C00019308BD2802030008B5024B1B689B6AFA
:1042AC00019308BD2802030008B5024B1B68DB6AAA
:1042BC00019308BD2802030008B5024B1B681B6B59
:1042CC00019308BD2802030008B5024B1B685B6B09
:1042DC00019308BD2802030008B5024B1B681B6C38
:1042EC00019308BD2802030008B5024B1B68DB696B
:1042FC00019308BD3002030008B5024B1B681B6A12
:10430C00019308BD3002030008B5024B1B681B6803
:10431C00019308BD4C02030008B5024B1B681B69D6
:10432C00019308BD4C02030008B5024B1B685B6986
:10433C00019308BD4C02030008B5024B1B689B6936
:10434C00019308BD4C02030008B5024B1B68DB69E6
:10435C00019308BD4C02030008B5024B1B681B6A95
:10436C00019308BD4C02030008B5024B1B685B6847
:10437C00019308BD2002030008B5024B1B68DB6AE1
:10438C00019308BD2002030008B5034B1B68D3F84A
:10439C008830019308BD00002002030008B5034BD0
:1043AC001B68D3F89430019308BD00002002030071
:1043BC0008B5024B1B685B68019308BD4002030003
:1043CC0008B5024B1B689B68019308BD40020300B3
:1043DC0008B5024B1B68DB68019308BD4002030063
:1043EC0008B5024B1B681B69019308BD4002030012
:1043FC0008B5024B1B685B69019308BD40020300C2
:10440C0008B5024B1B689B69019308BD4002030071
:10441C0008B5024B1B68DB69019308BD4002030021
:10442C0008B5024B1B681B6A019308BD40020300D0
:10443C0008B5024B1B681B6B019308BD40020300BF
:10444C0008B5024B1B685B6B019308BD400203006F
:10445C0008B5024B1B681B6C019308BD400203009E
:10446C0008B5024B1B685B6C019308BD400203004E
:10447C0008B5024B1B68DB6B019308BD44020300BB
:10448C0008B5024B1B681B68019308BD1C02030096
:10449C0008B5024B1B685B68019308BD1C02030046
:1044AC0008B5024B1B681B6C019308BD1C02030072
:1044BC0008B5024B1B685B6C019308BD1C02030022
:1044CC00002240681146FFF7ABBF0022406811463E
:1044DC00FFF7B6BF40680022FFF7AABF4068002272
:1044EC0081F00101FFF794BF002340681A4619467A
:1044FC00FFF786BF002340681A461946FFF778BFBE
:10450C00002240681146FFF76BBF0022406811463D
:10451C00FFF756BF406800220221FFF759BF002366
:10452C0040681A46FFF744BF024B03225A60024A06
:10453C001A607047B8E6032044500B0010B50446CF
:10454C0008462170FFF7D0FE00236360204610BDA3
:10455C00054B02221A60054B054A9A600020C3E9FC
:10456C000000FFF701BF00BFCCE60320C0E603202C
:10457C000000FFFF024800230360FFF72DBE00BFC1
:10458C00D0E60320F8B506460D468F180024BD4230
:10459C000CD0336815F8011B9B6830469847031EF6
:1045AC0001DB1C44F3E7002C08BF1C462046F8BD79
:1045BC0013B50446084659B10191FFF729FD23684C
:1045CC000199DB680246204602B0BDE8104018474E
:1045DC0002B010BD03689B68184730B58BB0002340
:1045EC00012A8DF8243098BF0A2209AC0D46B1FB84
:1045FC00F2F101FB125303F0FF03092B94BF30338C
:10460C003733DBB2AA4204F8013DEFD92146FFF75C
:10461C00CFFF0BB030BD0000014B024A1A6070474F
:10462C00D4E6032078500B00024B1A68024B1A6038
:10463C00704700BF38E60320D8E603208A4210B545
:10464C0007D0441A0298C01A4443501A94FBF0F055
:10465C00184410BD014B00229A607047DCE6032021
:10466C00014B1860704700BF3CE6032008B50B4BAC
:10467C0043B100F063F903681B699847002801DD1A
:10468C00AFF30080064B43B100F0B2FB03681B692B
:10469C009847002801DDAFF3008008BD0000000042
:1046AC000000000008B5FFF7E1FFFFF78DFD014B9F
:1046BC00186008BD40E703200548064A064908B5BE
:1046CC00121A00F001FC054B054A1A6008BD00BF28
:1046DC0000F4032004F40320FC520B0000F403202C
:1046EC001E1C279A07B5002300931A466FF077011A
:1046FC00FFF754FE03B05DF804FB000007B54388D8
:10470C000A2B08D0502B0BD1094B1B684BB103B0B3
:10471C005DF804EB1847FFF7E5FF03B05DF804FB09
:10472C00002300931A466FF07701FFF737FEF4E78A
:10473C00F0E6032010B512480021FFF7B9FE114B2B
:10474C001A68114B9A42114B0CBF012200221A70AD
:10475C0001D0FFF7B1FFFFF72FFD044600F0CAFBB5
:10476C000B4B13B12046AFF3008000210848FFF734
:10477C007FFEBDE8104007480021FFF705BE00BFD3
:10478C006D460B0000F403201E1C279AECE6032058
:10479C000000000009470B00704710B518210446B3
:1047AC00FFF77BFC204610BDF0B5037D062B8DB0CA
:1047BC000E4600F104074FF0000412D000F108057A
:1047CC0015F8011D0A223046FFF707FFAF420444DB
:1047DC0019D0002CF4D02E213046FFF7FBFE0444F8
:1047EC00EEE72F236A4639460A208DF80040FFF782
:1047FC00FBFC6846FFF70CFC33680246DB68694635
:10480C0030469847044620460DB0F0BD10B5054B18
:10481C000446112240F8043B002100F063FB2046C3
:10482C0010BD00BFA0500B000346074A10B543F85B
:10483C00042B01F1100251F8044B43F8044B914244
:10484C00F9D10A781A7010BDA0500B0010B59DF864
:10485C00084044EA032343EA024242EA016104238A
:10486C004160037510BD000007B5064B0360CB78A3
:10487C0000938B784A780978FFF7E8FF03B05DF86E
:10488C0004FB00BFA0500B00417470477047704789
:10489C0008B50021007CFFF74FFD40EAE07008BD31
:1048AC0008B50121007CFFF747FD40EAE07008BD28
:1048BC0008B5007CFFF738FD20EAE07008BD08B5AC
:1048CC00007CFFF729FD20EAE07008BD13B5044613
:1048DC00007C0191FFF728FD0028019901DC607C28
:1048EC0020B1207CFFF730FD20EAE07002B010BD53
:1048FC00007CFFF731BD10B514210446FFF7CDFB4A
:10490C00204610BD10B54FF47A73044608460021BA
:10491C00C4E90113044B2360012320746374114612
:10492C00FFF7F2FC204610BDB4500B0010B514225A
:10493C000446002100F0D6FA204610BD10B50F4CED
:10494C0088B003A8FFF7F2FF2178BFF35B8F11F05B
:10495C0001010FD120460191FFF7A1FB019948B14C
:10496C0003AA0748FFF7CEFF2046FFF79DFB05483B
:10497C0000F0A4FA024808B010BD00BFF4E6032012
:10498C00F8E6032099480B0070474174704708B54E
:10499C00007CFFF761FC20EAE07008BD08B5007CE4
:1049AC00FFF732FC20EAE07008BD08B5007CFFF789
:1049BC003BFC40EAE07008BD08B5007CFFF72CFC1E
:1049CC0040EAE07008BD007CFFF736BC37B5457C8B
:1049DC0004462DB1207C03B0BDE83040FFF70CBC81
:1049EC00007C0191FFF738FC00280199F2DC284685
:1049FC0003B030BD10B514210446FFF74EFB204622
:104A0C0010BD000010B54FF47A73044608461146E9
:104A1C000022C4E90123044B236001232074637436
:104A2C00FFF722FC204610BDE4500B007047F8B590
:104A3C00064615460C468F18BC4206D0336814F84F
:104A4C00011B9B6830469847F6E72846F8BD007C6A
:104A5C000022FFF711BC007C0021FFF715BC007C85
:104A6C000021FFF719BC007C0021FFF71DBC007C66
:104A7C000021FFF721BC10B514210446FFF70DFBF4
:104A8C00204610BD38B5044615464FF47A73002203
:104A9C00C4E90123094B2174084623602946FFF71A
:104AAC001BFCBF3008D16B69DB0705D56868FFF7C5
:104ABC00EFFCE868FFF7ECFC204638BD14510B0006
:104ACC00002240681146FFF78BBC0022406811465B
:104ADC00FFF7A6BC002240681146FFF7B1BC406846
:104AEC000022FFF7A5BC4068002281F00101FFF70E
:104AFC008FBC002340681A461946FFF781BC00237F
:104B0C0040681A461946FFF773BC002240681146EC
:104B1C00FFF756BC406800220221FFF759BC002366
:104B2C0040681A46FFF744BC024B04225A60024A02
:104B3C001A6070470CE703203C510B0000234068BF
:104B4C001A46FFF735BC406800220221FFF740BC33
:104B5C00002240681146FFF733BC00224068114622
:104B6C00FFF73EBC002340681A461946FFF740BCCD
:104B7C00002340681A461946FFF742BC40680021E2
:104B8C00FFF766BC40680021FFF76ABC4068002252
:104B9C0081F00101FFF73CBC40680022FFF748BCE4
:104BAC00002240681146FFF74BBC002240681146BA
:104BBC00FFF736BC2DE9F04395B014460D46074679
:104BCC00FFF724FE00211C220DA8009100F08AF9A9
:104BDC0040230C9320466B460CAA0021FFF7B4FA35
:104BEC00044600284BD1024601216868FFF7F8FB08
:104BFC000221804622466868FFF7F2FB009E814640
:104C0C002146002E3BD0002939D17368022B03D0EA
:104C1C000A2B11D0F669F4E7B8F1000FFAD07169DC
:104C2C0006A8043107ADFFF71FFE0FCD3C1D0FC4C6
:104C3C002B6823704146EDE7B9F1000FEAD0746997
:104C4C00102201A800F04EF906238DF8143001ADA6
:104C5C0004F108031834186859682A4603C208334B
:104C6C00A3421546F7D101A906A807ADFFF7DCFD55
:104C7C000FCD3C1D0FC42B6823704946CAE7009822
:104C8C00FFF75AFA384615B0BDE8F083024B034AD9
:104C9C001A6000225A60704714E7032078510B0009
:104CAC00232813B502D9002002B010BDA0F10B03CC
:104CBC00022B1AD8174C2178BFF35B8F11F001012E
:104CCC000BD120460191FFF7EAF9019928B112485E
:104CDC00FFF734FC2046FFF7E7F90F4B1878FFF786
:104CEC000BFB0028DFD10120DEE7012809D800F0FA
:104CFC00BFF80021007CFFF7E7FA80F00100C0B29A
:104D0C00D2E709380128EED800F072F8007CFFF7E2
:104D1C009BFAF2E71CE7032020E70320232838B591
:104D2C0004460D460AD8FF2908D0FFF7B9FF28B171
:104D3C0029462046BDE83840FFF716BA38BD0D2885
:104D4C0010B504469CBF0E34A4B22046FFF7A8FF52
:104D5C0050B103212046FFF7FFF9032804D1204668
:104D6C00BDE81040FFF718BA002010BD38B5044656
:104D7C000D46FFF795FFF0B104212046FFF7ECF943
:104D8C00042805D1A9B22046BDE83840FFF7FCB98C
:104D9C0002212046FFF7E0F902280CD12046FFF74C
:104DAC00EBF9012801D0042805D129462046BDE89D
:104DBC003840FFF7F9B938BD7047000038B50446E4
:104DCC0014252A46002100F08DF82580402507493E
:104DDC0025812846258200F06FF80449606028463A
:104DEC0000F06AF8E060204638BD00BFAC510B0003
:104DFC0030B50E4D2978BFF35B8F11F0010487B0ED
:104E0C0011D12846FFF74BF968B101A8FFF7D6FF7F
:104E1C0001AA21460648FFF7F5FD2846FFF744F99D
:104E2C00044800F04BF8024807B030BD28E70320D7
:104E3C002CE70320C54D0B007047000038B50A4B1A
:104E4C0003600123044643610849202000F034F834
:104E5C00202560600549A560284600F02DF8C4E9BE
:104E6C000305204638BD00BF18000100AC510B00F3
:104E7C0030B50E4D2978BFF35B8F11F0010487B06C
:104E8C0011D12846FFF70BF968B16846FFF7D6FF3A
:104E9C006A4621460648FFF7F5FD2846FFF704F958
:104EAC00044800F00BF8024807B030BD44E703207B
:104EBC0048E70320454E0B00FFF7EDB800230146F1
:104ECC001A46184600F044B80A44914200F1FF33E8
:104EDC0000D1704710B511F8014B03F8014F914206
:104EEC00F9D110BD02440346934200D1704703F838
:104EFC00011BF9E738B5104B1D68AB6B0446B3B911
:104F0C001820FFF7BDFA0246A86320B90B4B0C48DA
:104F1C004221FFF7C5FA0B490B4BC0E900130B4BB1
:104F2C0083600B23838100210120C2E90401AB6B58
:104F3C0000221C615A6138BD3CE60320AD510B00C8
:104F4C00C4510B000E33CDAB34126DE6ECDE050014
:104F5C002DE9F843DFF8B8800646D8F800001F4664
:104F6C000D46914600F056F8254B1C6834B9254C7B
:104F7C001C60254B13B11B68C4F8883063681F2B69
:104F8C0007DDD8F8000000F047F84FF0FF30BDE81F
:104F9C00F8834EB3D4F8880088B91C4B23B9D8F8E1
:104FAC00000000F038F8F0E74FF48470FFF768FA6F
:104FBC000028F4D00023C0E94033C4F888006368AB
:104FCC0040F8239001229A4000EB8301D0F8003185
:104FDC001343C0F80031022EC1F8807002BFD0F824
:104FEC0004311343C0F804316368D8F800005A1C2C
:104FFC000233626044F8235000F00EF80020C6E73C
:10500C00E8E703205CE70320000000008D440B0060
:10501C00A0E6032070477047704700002D400B003E
:10502C0069400B0091400B0095400B000000000004
:10503C0000000000000000002B450B0021450B0078
:10504C0017450B000D450B0001450B00F5440B00FB
:10505C00894B0B00914B0B00E9440B00E1440B0016
:10506C00D7440B00CD440B00C14B0B00617070009A
:10507C0025592D256D2D25645425483A254D3A2565
:10508C0053257A0061736374696D6500000000003C
:10509C0000000000B5470B00A5470B00A7470B000D
:1050AC0000000000000000009B480B0003490B00AF
:1050BC00D9480B0091450B00CB480B009D480B00C9
:1050CC00AD480B00FD480B00BD480B0095480B008C
:1050DC00000000000000000095490B00014A0B0085
:1050EC00D9490B0091450B00A9490B00C5490B0090
:1050FC00B7490B00D3490B0097490B009B490B0098
:10510C000000000000000000394A0B00834A0B002D
:10511C005B4A0B003B4A0B00634A0B006B4A0B00CB
:10512C00734A0B007B4A0B000000000000000000DB
:10513C002B4B0B00214B0B00174B0B00CD4A0B00DC
:10514C000B4B0B00FF4A0B00894B0B00914B0B00D8
:10515C00F34A0B00EB4A0B00E14A0B00D74A0B0059
:10516C00C14B0B000000000000000000494B0B007D
:10517C00534B0B005D4B0B00674B0B00714B0B0043
:10518C007D4B0B00894B0B00914B0B00994B0B008B
:10519C00A54B0B00AD4B0B00B74B0B00C14B0B00E1
:1051AC00005245454E54206D616C6C6F63207375D5
:1051BC0063636565646564002F6D6E742F776F7221
:1051CC006B73706163652F776F726B73706163655E
:1051DC002F4743432D31302D706970656C696E65B6
:1051EC002F6A656E6B696E732D4743432D31302DDD
:1051FC00706970656C696E652D34385F3230323091
:10520C00313132345F313630363138303634312F3B
:10521C007372632F6E65776C69622F6E65776C693C
:10522C00622F6C6962632F7374646C69622F726194
:10523C006E642E63000000001D410B0035450B0011
:10524C005D450B0081450B0025460B0035460B00D8
:0C525C0061460B00354B0B00994C0B0019
:10526800040000001400000003000000474E550031
:105278002B152D94367A18DF13A4DC9D8FF5AEE537
:04528800D986AE6CA9
:10528C008813000090500B0040E603200000000043
:10529C000000000000000000000000000000000002
:1052AC0000000000000000000000000000000000F2
:1052BC0000000000000000000000000000000000E2
:1052CC0000000000000000000000000000000000D2
:1052DC0000000000000000000000000000000000C2
:1052EC00000000000000000000000000ECE70320BC
:0452FC0000000000AE
:1053060000000102030405060708090A0B0C0D0E2E
:105316000F101112131415161718191A1B1C1D1E1F
:045326001F2028001C
:04532A00785634126B
:04000003B000401CED
:00000001FF
